:100000000C942A000C9447000C9447000C94470071
:100010000C9447000C9447000C9447000C94300457
:100020000C9447000C9459040C9447000C9447001E
:100030000C9447000C9447000C9447000C94470024
:100040000C9447000C9447000C9447000C94470014
:100050000C94470011241FBECFE5D8E0DEBFCDBF12
:1000600010E0A0E6B0E0E4EEFAE002C005900D92E8
:10007000A638B107D9F710E0A6E8B0E001C01D929C
:10008000A439B107E1F70E948F010C9470050C941C
:10009000000020E030E0F901E657FF4FD901A157F9
:1000A000BF4F90818C91981749F42F5F3F4F2530B7
:1000B000310589F781E08093860002C010928600A6
:1000C000809186000E9422050895CF93DF9380E2FD
:1000D0000E942205CAE8D0E00E942605899380E0AC
:1000E000CF38D807C9F7CFE8D0E00E94260589931A
:1000F00080E0C439D807C9F7DF91CF910895DF9325
:10010000CF93CDB7DEB762970FB6F894DEBF0FBEC0
:10011000CDBFDE011196E9E7F0E086E001900D9297
:100120008150E1F7CE0101960E948204109287006F
:1001300009C081E064E60E943F02809187008F5FE2
:100140008093870080918700823098F31092870017
:100150000E94A304DE011796E3E7F0E086E0019039
:100160000D928150E1F7CE0107960E94820409C0EA
:1001700080E060E00E943F02809187008F5F809363
:10018000870080918700882399F3109287000E944E
:10019000A304DE011D96EDE6F0E086E001900D92ED
:1001A0008150E1F7CE010D960E94820409C082E0E1
:1001B00064E60E943F02809187008F5F80938700F2
:1001C00080918700823098F3109287000E94A304E8
:1001D00062960FB6F894DEBF0FBECDBFCF91DF9110
:1001E0000895DF93CF9300D000D000D0CDB7DEB715
:1001F000DE011196EFE7F0E086E001900D9281506C
:10020000E1F7CE0101960E9482041092870007C098
:100210000E942E02809187008F5F809387008091DB
:1002200087008830A8F30E942802109287000E945D
:10023000A30426960FB6F894DEBF0FBECDBFCF91B4
:10024000DF910895EF92FF920F931F93DF93CF9367
:10025000CDB7DEB72A970FB6F894DEBF0FBECDBF7D
:1002600080E20E9422058E010F5F1F4F96E0E92E6B
:10027000F12CEC0EFD1E0E942605F80181938F01E2
:10028000EE15FF05C1F700E010E086E0E82EF12C46
:10029000EC0EFD1EB701600F711FC80180509C4F0E
:1002A0000E9479020F5F1F4F0530110599F740E05A
:1002B0008E010F5F1F4FBE016A5F7F4F20C0F801A4
:1002C000E20FF31FDB01A20FB31F90818C919817EF
:1002D00031F42F5F3F4F2530310589F70FC04F5F55
:1002E000433068F0433071F41092860080E00E9441
:1002F000220581EF90E00E94AD0404C040E020E0C0
:1003000030E0DDCF2A960FB6F894DEBF0FBECDBF2A
:10031000CF91DF911F910F91FF90EF9008950F9370
:100320001F93DF93CF93CDB7DEB72C970FB6F8941A
:10033000DEBF0FBECDBF8FB780688FBFDE011696C0
:10034000E6E6F0E087E001900D928150E1F7CE0102
:1003500006960E94F304DE011196E1E6F0E085E0E6
:1003600001900D928150E1F7CE0101960E94B204F6
:100370000E9464020E9434020E9426058031E1F747
:1003800002E015E080916000843071F08530D9F092
:100390008330D1F70E942605843019F480936000E1
:1003A000F1CF10936000EECF0E9422010E9426053B
:1003B00080918600813099F40E9422058FE790E0B9
:1003C0000E94AD040CC00E9422010E94260580916B
:1003D0008600813021F40E94220500936000109273
:1003E0008600D0CF0F931F93CF93DF93C0E0D4E06C
:1003F00000E21EE4FE01E657F340CE0160810E9458
:10040000BE02C8010197F1F7219684E0C530D807F4
:1004100089F7DF91CF911F910F91089512BE9FEF41
:10042000899FC0011124AA2797FDA095BA2FBC016E
:10043000CD0124E630E040E050E00E944E052CBFA4
:100440008AE683BF81E063E041E00E94EF02089505
:1004500082E062E040E00E946303089582E062E08F
:1004600041E00E946303089582E062E041E00E945F
:10047000EF0282E062E040E00E94630308951F9370
:10048000162F813049F0813018F08230C1F40DC050
:1004900081E060E040E00CC081E060E040E00E946C
:1004A000630381E061E041E008C081E060E041E099
:1004B0000E94630381E061E040E00E946303812FBA
:1004C0000E940E021F91089581E060E041E00E94C9
:1004D000EF0281E061E041E00E94EF0281E060E034
:1004E00040E00E94630381E061E040E00E9463031A
:1004F0000895EF92FF921F93CF93DF93EC017B015E
:100500000E94D2040E94F004883089F5CE01880F41
:10051000892F881F990B9195182F1E70812F806A43
:100520000E94DB040E94F004883109F58C2F0E94A0
:10053000DB040E94F0048832D1F40E94D2040E94AD
:10054000F0048031A1F4812F816A0E94DB040E94B3
:10055000F004803461F40E94E904F70180830E9472
:10056000F004883521F40E94D80481E001C080E0C5
:10057000DF91CF911F91FF90EF9008951F93CF933C
:10058000DF93EC01162F0E94D2040E94F004883001
:1005900009F5CE0180709770880F892F881F990BFD
:1005A0009195806A0E94DB040E94F004883191F4E6
:1005B0008C2F0E94DB040E94F004883259F4812FB2
:1005C0000E94DB040E94F004883221F40E94D804C7
:1005D00081E001C080E0DF91CF911F9108956830E4
:1005E00008F070C0843008F06DC0813009F18130AE
:1005F00030F08230B1F1833009F064C04BC041303B
:1006000059F42AB381E090E002C0880F991F6A95DF
:10061000E2F7282B2ABB08952AB381E090E002C0BC
:10062000880F991F6A95E2F7809582238ABB089507
:10063000413059F427B381E090E002C0880F991F40
:100640006A95E2F7282B27BB089527B381E090E055
:1006500002C0880F991F6A95E2F78095822387BBB5
:100660000895413059F424B381E090E002C0880F2E
:10067000991F6A95E2F7282B24BB089524B381E0E3
:1006800090E002C0880F991F6A95E2F78095822357
:1006900084BB0895413059F421B381E090E002C059
:1006A000880F991F6A95E2F7282B21BB089521B383
:1006B00081E090E002C0880F991F6A95E2F780956B
:1006C000822381BB0895683008F070C0843008F040
:1006D0006DC0813009F1813030F08230B1F183306A
:1006E00009F064C04BC0413059F42BB381E090E075
:1006F00002C0880F991F6A95E2F7282B2BBB08953B
:100700002BB381E090E002C0880F991F6A95E2F751
:10071000809582238BBB0895413059F428B381E042
:1007200090E002C0880F991F6A95E2F7282B28BB3A
:10073000089528B381E090E002C0880F991F6A9560
:10074000E2F78095822388BB0895413059F425B3A0
:1007500081E090E002C0880F991F6A95E2F7282B8C
:1007600025BB089525B381E090E002C0880F991F52
:100770006A95E2F78095822385BB0895413059F44C
:1007800022B381E090E002C0880F991F6A95E2F7DA
:10079000282B22BB089522B381E090E002C0880F8D
:1007A000991F6A95E2F78095822382BB089568308D
:1007B000D0F48430C0F4813049F0813028F08230A8
:1007C00039F0833081F406C089B305C086B303C015
:1007D00083B301C080B390E002C0959587956A9578
:1007E000E2F78170089580E00895843080F48130CC
:1007F00049F0813028F0823039F0833041F406C06E
:100800006ABB089567BB089564BB089561BB0895F2
:10081000843080F4813049F0813028F0823039F022
:10082000833041F406C06BBB089568BB089565BB77
:10083000089562BB0895843088F4813049F0813096
:1008400028F0823039F0833049F406C089B3089526
:1008500086B3089583B3089580B3089580E0089522
:100860001F920F920FB60F9211242F933F934F9325
:100870005F936F937F938F939F93AF93BF93EF9308
:10088000FF93E0918800F0918900309709F0099575
:10089000FF91EF91BF91AF919F918F917F916F9158
:1008A0005F914F913F912F910F900FBE0F901F902E
:1008B00018951F920F920FB60F9211242F933F930A
:1008C0004F935F936F937F938F939F93AF93BF9358
:1008D000EF93FF93E0918800F0918900309709F041
:1008E0000995FF91EF91BF91AF919F918F917F916A
:1008F0006F915F914F913F912F910F900FBE0F908D
:100900001F901895FC01808191819DBD8CBD8FB594
:100910008C608FBD8581882331F48EB58EBD89B7FB
:10092000846089BF0895843069F49EB584818062B3
:10093000987F892B8EBD828193819BBD8ABD89B7AB
:10094000806189BF08951FBC1EBC1DBC1CBC1BBCA4
:100950001ABC89B78B7E89BF0895909389008093D4
:10096000880008950F931F938C01FC01218132812F
:100970004381548160E072E18AE790E00E944E0575
:100980002051304040405040569547953795279527
:1009900020B911B8F801808182B984E086BF1F9127
:1009A0000F91089584EA86BF06B607FEFDCF08952D
:1009B00084E986BF089583B984E886BF06B607FE3A
:1009C000FDCF089584EC86BF06B607FEFDCF83B148
:1009D000089584E886BF06B607FEFDCF83B108956B
:1009E00081B1887F0895FC0182E08BB98081282F36
:1009F000247028612AB931813295330F307E2281EB
:100A0000220F220F220F232B206890E08670907017
:100A1000880F991F282B20BD238134814581568161
:100A200083E0220F331F441F551F8A95D1F760E0E2
:100A300072E18AE790E00E944E052150304030BDBF
:100A400029B908955D9BFECF8CB908955F9BFECFB9
:100A50008CB1089520E004C05D9BFECFECB92F5F00
:100A6000FC01E20FF11DE081EE23B1F70895DC01F6
:100A70005F9BFECF8CB18C9390E008C09F5F5F9B23
:100A8000FECF8CB1FD01E90FF11D8083FD01E90F5F
:100A9000F11D8081833291F710820895A1E21A2E10
:100AA000AA1BBB1BFD010DC0AA1FBB1FEE1FFF1F12
:100AB000A217B307E407F50720F0A21BB30BE40B62
:100AC000F50B661F771F881F991F1A9469F76095A9
:100AD0007095809590959B01AC01BD01CF01089563
:040AE000F894FFCFB8
:100AE4000201801A0600030000802500000000E2D5
:100AF400E4050400008E5B05040000E2E405040044
:060B040000E2E40504001C
:00000001FF
